:020000040800F2
:1000000018130020510200082D1E00089916000840
:10001000291E00084B160008FD1E00080000000005
:10002000000000000000000000000000311E000879
:1000300055160008000000002F1E0008331E00089F
:100040006B0200086B0200086B0200086B020008DC
:100050006B0200084F160008591600086B020008D2
:100060006B0200086B0200086B02000851160008C2
:10007000531600086B0200086B0200086B020008B0
:100080006B0200086B0200086B0200086B0200089C
:100090006B0200086B0200086B0200086B0200088C
:1000A0006B0200086B0200086B0200086B0200087C
:1000B0006B0200086B0200086B0200089F16000824
:1000C0009D1600086B0200086B0200086B02000816
:1000D0006B0200086B0200086B0200086B0200084C
:1000E0006B0200086B0200086B0200086B0200083C
:1000F0006B0200086B0200086B0200086B0200082C
:100100006B0200086B0200086B0200086B0200081B
:10011000A51E00086B0200086B0200086B020008B5
:100120006B0200086B0200086B0200086B020008FB
:100130006B0200086B0200086B0200086B020008EB
:1001400000000000000000000000000000000000AF
:100150006B0200086B0200086B0200086B020008CB
:100160006B0200086B0200086B0200086B020008BB
:100170006B0200086B0200086B0200086B020008AB
:100180006B02000800F002F800F053F80AA090E8B3
:10019000000C82448344AAF10107DA4501D100F042
:1001A00048F8AFF2090EBAE80F0013F0010F18BFBC
:1001B000FB1A43F00103184788460000A8460000D8
:1001C000103A24BF78C878C1FAD8520724BF30C883
:1001D00030C144BF04680C60704700000023002455
:1001E00000250026103A28BF78C1FBD8520728BF47
:1001F00030C148BF0B607047662904F0A4826429AF
:1002000000F0AA80782900F0E380002070471FB535
:1002100004F08FFA9DE8030000F0AEF900F060FCF6
:1002200004000020002103F075FEE0601FBD10B542
:1002300010BD00F08EFD1146FFF7E9FF03F030F826
:1002400000F0ACFD03B4FFF7F2FF03BC01F077FE52
:100250000948804709480047FEE7FEE7FEE7FEE75A
:10026000FEE7FEE7FEE7FEE7FEE7FEE70448054996
:10027000054A064B70470000351E0008850100083E
:10028000180D002018130020180F0020180F002050
:10029000704770B5064600F053F9056806F10B008B
:1002A00020F00704B4429CBF002070BD2B466A6852
:1002B000BAB11068A04210D304F1080188423CBFD3
:1002C0005068586007D35168101941601168091BC4
:1002D000016058601460101D70BD13465268002AFA
:1002E000E7D12146284600F033F90028DED170BD61
:1002F00070B50446051F00F023F90068002C14BFF8
:10030000446870BD002C18BFAC423CBF20466468F6
:10031000F8D301680A18AA4218BF456003D12A68B9
:1003200005461144016028684119A1421CBF6C6058
:1003300070BD6168696021680844286070BD000074
:100340000FB4044910B503AA029800F0B3FB10BC27
:100350005DF814FB400000202DE9F0410646002422
:1003600010687529314616A510D0AFF3008000281B
:1003700002DA404213A507E031688A0701D512A5C9
:1003800002E0490704D511A5012401E0AFF3008084
:1003900000210A2206F1240709E0B0FBF2FCB0FBC1
:1003A000F2F302FB1C00303078541846491C002838
:1003B000F3D123462A463046BDE8F04100F012B999
:1003C000000000002D0000002B00000020000000B5
:1003D00070B504460D4621461068AFF300802188B1
:1003E000090502D50F4A7A4402E00E4A7A440E32D9
:1003F000002104F1240305E000F00F060009965DDA
:100400005E54491C0028F7D120780023000704D54A
:10041000702D02D009B1022311322046BDE8704090
:1004200000F0E0B8984300002DE9F0474FF0000AD3
:1004300089460446C0F820A02046E1688847002885
:1004400076D0252806D0D4E901219047206A401CA7
:100450002062F1E7E168204600258847C4F81CA027
:1004600006460027C4F818A02A2E09D0304601F00D
:100470005FFD38B304EB8708303EC8F8186019E018
:1004800059F8041B204604EB87029161E168884714
:10049000012F064618D1E069002820DA25F0200552
:1004A0001DE0D8F8180000EB800006EB4000303863
:1004B000C8F818002046E1688847064601F038FD74
:1004C0000028EED1012F0AD02E2E08D12046E16857
:1004D00088477F1C0646022F45F02005C4DBA06933
:1004E000002803DA404245F00105A061E80701D089
:1004F00025F01005B6B1A6F14100192802D8203622
:1005000045F400654A463146204625604D46FFF7D2
:1005100073FE58B1012806D0ED1D25F0070000F14B
:10052000080989E704E005F1040985E730468AE710
:10053000206ABDE8F0877047704770477047000039
:1005400000487047C00C00207047704770477047E4
:1005500038B504460A4600206946AFF300800028FB
:1005600008BF38BD02460099204600F0BDFA0120C0
:1005700038BD012000F0E6BBF8B5AFF300800546BA
:1005800000200C46102000BF0646A819A0420DD935
:10059000324669460020AFF30080070008BF00F034
:1005A000D1FB0098A04218BF0546C419FFF7C8FF49
:1005B00005600746F01D20F007004619284600F0A8
:1005C0000AF8B44208BFF8BDA21B31463868BDE83E
:1005D000F84000F089BA00210160C0E901107047BD
:1005E000102070472DE9F0470D4699469246044683
:1005F00000F124080168880604D5E06921F01001A3
:10060000216000E00120A84201DD471B00E0002737
:10061000A1697A1902EB0900081AA0612078C006C6
:1006200002D42046AFF30080002608E0D4E901217F
:100630001AF806009047206A401C761C20624E453E
:10064000F4DB2078C0060AD52046AFF3008006E030
:10065000D4E9012130209047206A401C2062381ED6
:10066000A7F10107F4DC07E0D4E9012118F805003F
:100670009047206A401C2062281EA5F10105F3DC8A
:100680002046AFF300802078000602D50220BDE8A6
:10069000F0870120FBE770472DE9FF4F0C461E460F
:1006A0004FF0FF378BB0D2E90001DDF860800A908F
:1006B0008A46C1F30A5505B93D46002108464FF068
:1006C0000000BAF1000F00F4400005DA00EB8000F2
:1006D0004FF4400101EA50004FEA9059B9F1010F7F
:1006E00000DDB9460A9850EA4A000ED044F6105090
:1006F000A5F2FF3545432F14B8F1000F1ED0754207
:10070000291E1EDDC9F100021CE0B8F1010F4FF0F7
:10071000000001D0302103E0F24305E02154401CE9
:10072000B042FBDB30460022002121540B99C1F876
:100730000880C1E900200FB0BDE8F08FBD1B6D1C23
:10074000DEE74A4600DA694206A800F085FA06AB01
:1007500093E8070003AB83E8070050460A9900F0CE
:10076000ACFB8DE80700A0F500501F3800900398FF
:10077000002D0ADD42F21F014A460844002303A966
:100780000390684600F015FE09E0A0F500504A46C7
:100790001F38002303A90390684600F01FFE8DE870
:1007A00007000004000C03D04FF0FF30410800E0C8
:1007B0001046B8F1000F03D00022009215461EE04B
:1007C000751E05D400F0AAF9303262556D1EF9D5B8
:1007D000B3460122084302D000227F1C04E02078A7
:1007E000302801D100227F1E002A099784D01DE005
:1007F000112D07DA00F092F9303262556D1C50EA83
:100800000102F5D1084302D00098C8B10EE00021E2
:10081000681E05E0235C625C63542254401E491C40
:100820008142F7DBAB46A81B401E0990002004F86C
:100830000B000B98099AC0F80880C0E9002B7AE7F2
:1008400011264FF0000857E72DE9F04F884604467F
:10085000D21D22F0070191B0D1E90001CDE90A01D2
:1008600001F04EFB02460B98C00F01D02D2007E08F
:100870002068810701D52B2002E0202101EAC00079
:10088000032A099001D0072A05DB0346414620468A
:1008900000F0A2F90BE12078800601D5E06900E0C4
:1008A0000620B8F1650F814606D0B8F1660F18D062
:1008B000B8F1670F70D131E00020B9F1110F00904D
:1008C00001DB112301E009F101030AAA01A90CA827
:1008D000FFF7E2FEDDE90C70002609F10105834611
:1008E00047E001204B4600904FF000470AAA01A9BB
:1008F0000CA8FFF7D1FEDDE90DB00C995D4600268E
:1009000010B909F101000D18B9EB050003D4C0F1CD
:10091000FF3609F10105A5EB09002BE0B9F1010F44
:1009200001DA4FF001090020B9F1110F009048469B
:1009300001DD112300E003460AAA01A90CA8FFF774
:10094000ABFEDDE90C704D4600268346207800079B
:100950000AD4AB4500DA5D4601A8012D04DD41193A
:1009600011F8011C302907D04F4502DA17F1040FA6
:1009700004DA012082460FE06D1EEEE7002F02DC54
:10098000ED1B3E4403E0781CA84200DD7D1CB81B33
:1009900000F1010A4FF000472078000703D4AA4570
:1009A00001DB4FF0FF3A0021B7F1004F0DF1430892
:1009B0008DF8431024D002202B23002F01DA7F4230
:1009C0002D230A21021EA0F1010000DC5FB197FB7C
:1009D000F1FC97FBF1F201FB1C7C17460CF1300C8B
:1009E00008F801CDEEE7A8F10100037021880905A0
:1009F00001D5452100E06521A0F1010800F8011CA6
:100A000009980FA9A1EB0807FF1D00B101204119AA
:100A100001EBEA70A1693844081A401EA0612078F1
:100A2000C00602D42046AFF30080099828B1D4E96B
:100A300001219047206A401C20622078C00622D500
:100A40002046AFF300801EE0002E04DBB34502DD3C
:100A500001A8805D00E03020D4E901219047206AA0
:100A6000401C2062761CAAF101005FEA000A0AD14C
:100A700000F036F8C0680168405CD4E90121904775
:100A8000206A401C2062281EA5F10105DCDC07E07D
:100A9000D4E9012118F8010B9047206A401C20621C
:100AA000381EA7F10107F3DC2046AFF300800320D6
:100AB00011B041E6074B70B50D467B4400F079F864
:100AC0000446284600F03AF910B14FF0FF3070BDEF
:100AD000204670BD271F000000487047B80C00205A
:100AE00000487047D80C0020034640688C46002818
:100AF00018BF88423CBF03464068F8D318681844C2
:100B0000884207D00CF1030020F00700001D411AB5
:100B1000521A0146081D0A60FFF7EABB30B5B0F172
:100B20000A024FEA900E71F100034EEA817EB0EBAB
:100B30000E0061EB91014FEA101E4EEA017E10EBB0
:100B40000E0041EB11114FEA102E4EEA016E10EB30
:100B50000E0041EB11214FEA104E4EEA014E10EB10
:100B60000E0041EB1141401841F100014FEAD00065
:100B700040EA41704FEAD10110EB80054FEA810451
:100B800044EA907444EB01046D1944EB0404521BD5
:100B9000A3414FF0000348BF0A3200D530BD401CCE
:100BA00041F1000130BD000001694A1C0261087872
:100BB000704700B58FB0CDE901310021059105499D
:100BC0007944CDE9031011466846FFF72DFC0FB0BC
:100BD00000BD0000E5FFFFFF2DE9F0411F46044680
:100BE00003260168072A01F4006004DB08B116A59A
:100BF00005E016A503E008B115A500E015A521F054
:100C000010002060A069C01EA0610FB1401EA0614D
:100C10002046AFF300804FB1D4E901213846904718
:100C2000206A401C2062C01C206206E0206AFAE7AD
:100C3000D4E9012115F8010B9047761EF8D2204621
:100C4000AFF30080BDE8F0814E414E006E616E0052
:100C5000494E4600696E66002DE9F047814616460A
:100C60008AB0354878440DC88DE80D003248784484
:100C7000801C03AC0DC884E80D0041F69B3008448D
:100C8000372190FBF1F290FBF1F5A5F1800501FB16
:100C900012041B3C02D56442012000E00020DFF872
:100CA00098A080460027FA44AAF1BE0A0EE0E007A9
:100CB0000AD03246684607EB470101230AEB81015F
:100CC00000F08CFB8DE8070064107F1C002CEED137
:100CD000194F7F44AE3F19E0E80715D007EB041029
:100CE0000DF1180A90E80E008AE80E00C068F04284
:100CF00001D1981908903246012306A903A800F0F3
:100D00006DFB03AB83E807006D10641C002DE3D17D
:100D10004FF0010332466946B8F1000F03A802D034
:100D200000F047FB01E000F059FBC9E90001C9F8F8
:100D300008200AB0BDE8F087C03B0000007B00F04F
:100D40008000704710B500F037F8BDE8104000F0A3
:100D50002EB87546FFF7C0FEAE46050069465346FD
:100D600020F00700854618B020B5FFF77FFABDE8F0
:100D700020404FF000064FF000074FF000084FF002
:100D8000000B21F00701AC46ACE8C009ACE8C00993
:100D9000ACE8C009ACE8C0098D46704710B5044600
:100DA000AFF300802046BDE81040FFF74BBA0028A3
:100DB00001D001F0C4B8704710B5012805D000215A
:100DC00003A000F061F8012010BD09A1F8E70000C0
:100DD00053494752544D454D3A204F7574206F6624
:100DE0002068656170206D656D6F7279000000008C
:100DF0003A2048656170206D656D6F727920636F70
:100E000072727570746564004FF0013C50F8042BE9
:100E100051F8043B9A4221D1A2EB0C03934313EA0D
:100E2000CC1317D150F8042B51F8043B9A4215D13A
:100E3000A2EB0C03934313EACC130BD150F8042B11
:100E400051F8043B9A4209D1A2EB0C03934313EAF5
:100E5000CC13DBD04FF00000704700BFD01A01BAAE
:100E6000B1FA81F101F0180122FA01F0CB40C1F191
:100E70002001DBB2C0B2C01A2CFA01F3D11A91439F
:100E800011EAC311E6D1704770B505460C460A2039
:100E900000E06D1C01F055F835B128780028F8D134
:100EA00002E0641C01F04DF814B120780028F8D15C
:100EB000BDE870400A2001F044B85FEA400C08BF6A
:100EC00091F0000F4FEA8C234FEAC12243EA5151BF
:100ED0004FEA1C5018BF00F5F0404FEA300018BF31
:100EE00041F000415FEA6C5C00F02980BCF1FF3FFB
:100EF00008BF40F080407047130C06BF12044FF04B
:100F0000100C4FF0000C130E04BF12020CF1080C71
:100F1000130F04BF12010CF1040C930F04BF9200D5
:100F20000CF1020CD30F04BF52000CF1010C11465E
:100F30004FF00002A0F11F00A0EB0C00704711F071
:100F4000004F08BF704731F000413FF4D5AF0B0CA4
:100F500006BF09044FF0100C4FF0000C0B0E04BF3D
:100F600009020CF1080C0B0F04BF09010CF1040C71
:100F70008B0F04BF89000CF1020CCB0F04BF49009A
:100F80000CF1010CCCF12003A0EB0C0022FA03F3CE
:100F900002FA0CF241EA030100F10100704720F06F
:100FA0007F4C80EA030023F07F47ACEB070303F597
:100FB0007C5300F0004003F1FF032DE980494FEA24
:100FC000154B09B44FEA144325EA0B4E24EA0348B3
:100FD0000FF2042606EB132749083E785FEA320237
:100FE00003FB0667C7F5000707FB06F64FEA543711
:100FF0004FEAD64606F1020607FB066CCCF1005C10
:101000004FEA1C472CEA074C07FB06F40CFB06F5DD
:1010100004EB15464FEA961634BF00204FF000400F
:101020004FEAD13706FB07FC4FEA1C4C0CFB0BF7D1
:10103000D21B03FB0CF761EB07010CFB0EF7B0EBC7
:10104000074072EB17420CFB08F734BFA2EB0742D4
:10105000B2EB074261EB17414FEA0C444FEA9107AC
:1010600006FB07FC4FEA1C4C0CFB0BF7B0EBC74030
:1010700072EB573203FB0CF734BFA2EBC742B2EB63
:10108000C74261EB57310CFB0EF7B0EBC70072EBB8
:1010900057720CFB08F734BFA2EBC702B2EBC702D2
:1010A00061EB5771039F4FEA816141EA921104EBB2
:1010B000CC044FEAD1374FEA826206FB07FC42EAD2
:1010C00090124FEA80604FEA1C4C0CFB0BF7D21BCE
:1010D00003FB0CF761EB07010CFB0EF7B0EB0740CD
:1010E00072EB17420CFB08F734BFA2EB0742B2EBDE
:1010F000074261EB17414FEA8C554FEA910704EB29
:101100009C2406FB07FC4FEA1C4C0CFB0BF7B0EBD6
:10111000C74072EB573203FB0CF734BFA2EBC74258
:10112000B2EBC74261EB57310CFB0EF7B0EBC700D7
:1011300072EB57720CFB08F734BFA2EBC702B2EB9D
:10114000C70261EB577115EB4C254FEA816141EA0B
:1011500092114FEA82624FEAD13742EA901206FBBF
:1011600007FC44F100044FEA80604FEA1C4C0CFB82
:101170000BF7D21B03FB0CF761EB07010CFB0EF71F
:10118000B0EB074072EB17420CFB08F734BFA2EB41
:101190000742B2EB074261EB174115EB1C154FEA12
:1011A000813141EA92414FEA823242EA90424FEA6B
:1011B00080304FEA0C7644F1000448EA03434EEADB
:1011C0000B484FF0000EB2EB080C71EB030724BF85
:1011D000624639464EEB0E0E4FF0000B001852419E
:1011E00049414BEB0B0BB2EB080C71EB03077BF1A6
:1011F000000B24BF624639464EEB0E0E4FF0000B3B
:101200000018524149414BEB0B0BB2EB080C71EB50
:1012100003077BF1000B24BF624639464EEB0E0EEE
:1012200051EA020718BF46F0010616EB0E7655F19B
:10123000000254F1000103D5BDE88901BDE8008832
:10124000BDE88901BDE80048B619524141EB0101F2
:10125000A3F10103704780807F7E7D7C7B7A797863
:10126000777676757473727171706F6E6E6D6C6C6B
:101270006B6A6A696868676666656464636362610D
:101280006160605F5F5E5E5D5D5C5C5B5B5A5A598E
:1012900059585857575656555555545453535252FA
:1012A0005251515050504F4F4F4E4E4D4D4D4C4C52
:1012B0004C4B4B4B4A4A4A4949494848484747479B
:1012C00047464646454545444444444343434342D8
:1012D000424242414141002B9C4630D477002BD002
:1012E0001CB54FEA370703B44FF010004FF0100160
:1012F000BAF1000F06D0BCF1000FDCBF40F00800CF
:1013000040F008014FF000000FBCBDE810400BF1A9
:10131000010BBBF1010F08BF5FEA170722BF12F1F3
:10132000010211F101014FF0004143F1000300F00F
:10133000004043EA00007047F9D35708D0E746EA77
:10134000064613F1400F4FEA16461FDD13F1200F3A
:10135000DFBF16430A46002120335B42BED0C3F1F3
:10136000200746EA064602FA07F74FEA164646EA1B
:101370000706C3F1200722FA03F201FA07F721FA60
:1013800003F14FF0000342EA0702A7E746EA02062C
:1013900046EA06464FEA164646EA0106BCBF46EA5A
:1013A0000646360C4FF000034FF000024FF00001EC
:1013B00094E72DE9804C9A46934670B491E8380042
:1013C00007C831EA400C48BF34EA430C03D5FFF7A5
:1013D000E6FDFFF780FFF0BCBDE8008C2DE9804CF6
:1013E0009A46934670B491E8380007C810F0804FD1
:1013F00008BF13F0804F03D100F005F8FFF76BFF33
:10140000F0BCBDE8008C20F07F4780EA030023F0A9
:101410007F4C07EB0C03A3F57C5300F00040A3F1D5
:10142000FE0392F0000F00F0B38095F0000F00F083
:1014300077802DE901494FEA11404FEA144621EA2D
:10144000004800FB06FC24EA064708FB06F607FBFB
:1014500008F800FB07F718EB06484CEB164C4FEA70
:10146000124B18EB07484FEA15464CEB174022EA9F
:101470000B4E0BFB06FC25EA06470EFB06F607FBA8
:101480000EFE0BFB07F71EEB064E4CEB164C4FF017
:1014900000061EEB074E4CEB174B18EB0B0840F108
:1014A000000018EB0E0B58EB000840F100008F1AFB
:1014B0004FF000013CBFC943661B14BFB5EB040CE1
:1014C00000213CBFC943F61B4FEA17444EEA8E0E7B
:1014D00027EA04454FEA1C4704FB07622CEA074C45
:1014E00005FB07F70CFB05F604FB0CFC16EB0746A7
:1014F00042EB174216EB0C4642EB1C421BEB060676
:1015000058EB0202414146EA9E0601D5BDE8018939
:10151000B619524141EB0101A3F10103BDE8018974
:101520004FEA14454FEA114724EA054621EA074CE1
:1015300005FB07F406FB07F70CFB06F105FB0CFCAB
:1015400011EB074144EB17444FEA124711EB0C41F2
:1015500044EB1C4422EA074C05FB07F206FB07F7A5
:101560000CFB06F605FB0CFC16EB074642EB17429C
:1015700016EB0C4642EB1C456A1854F1000148BFBB
:101580007047B619524141EB0101A3F101037047C5
:1015900095F0000F37D04FEA11424FEA144721EA85
:1015A000024624EA074C02FB07F106FB07F70CFB97
:1015B00006F402FB0CFC14EB074441EB17414FEA25
:1015C000154714EB0C4441EB1C4125EA074C02FB88
:1015D00007F506FB07F70CFB06F602FB0CFC16EB07
:1015E000074645EB174516EB0C4645EB1C42121916
:1015F00051F1000148BF7047B619524141EB01015A
:10160000A3F1010370474FEA14454FEA114724EA5A
:10161000054621EA074C05FB07F106FB07F70CFB23
:1016200006F24FF0000605FB0CFC12EB074241EB03
:10163000174112EB0C4251EB1C4148BF7047921806
:1016400041EB0101A3F10103704700BFFEE77047C2
:10165000704770477047000010B5012001F0B0F9E5
:10166000B8B10C4909680868FEF742FE0020094934
:101670000968086007480068FEF73AFE002005493F
:10168000086001F0D5FE022000F0B8FC012001F056
:101690003BF910BD4400002000BFFEE770477047D3
:1016A00010B5002000F06EFC012000F06BFC022061
:1016B00000F068FC002000F08DFC012000F08AFCA6
:1016C000022000F087FC00F03FFC10BD024642EA19
:1016D000012318B270477CB505460C46012301AAC8
:1016E0003C21284600F0EEFA01236A463B212846B9
:1016F00000F0E8FA9DF800109DF80400FFF7E6FFFF
:101700002080012301AA3E21284600F0DBFA0123B4
:101710006A463D21284600F0D5FA9DF800109DF854
:101720000400FFF7D3FF6080012301AA402128466F
:1017300000F0C8FA01236A463F21284600F0C2FAA9
:101740009DF800109DF80400FFF7C0FFA0807CBD4D
:1017500030B52DED048B83B005460C46002001907A
:10176000029001A92846FFF7B6FFA87A30B10128F8
:1017700038D002286AD003287ED19DE0BDF904004C
:1017800002F010FE41EC190B9FED680B53EC102B8F
:1017900002F0B0FC41EC180B02F0D2FB2060BDF966
:1017A000060002F0FFFD41EC190B9FED600B53ECBE
:1017B000102B02F09FFC41EC180B02F0C1FB6060A3
:1017C000BDF9080002F0EEFD41EC190B9FED570B3F
:1017D00053EC102B02F08EFC41EC180B02F0B0FB26
:1017E000A0609EE0BDF9040002F0DCFD41EC190BA5
:1017F0009FED500B53EC102B02F07CFC41EC180BCE
:1018000002F09EFB2060BDF9060002F0CBFD41EC2A
:10181000190B9FED480B53EC102B02F06BFC41ECC5
:10182000180B02F08DFB6060BDF9080002F0BAFDF4
:1018300041EC190B9FED3F0B53EC102B02F05AFCBF
:1018400041EC180B02F07CFBA0606AE0BDF90400DB
:1018500002F0A8FD41EC190B9FED380B53EC102B57
:1018600002F048FC41EC180B02F06AFB2060BDF965
:10187000060002F097FD00E052E041EC190B9FEDED
:101880002F0B53EC102B02F035FC41EC180B02F03F
:1018900057FB6060BDF9080002F084FD41EC190BB4
:1018A0009FED260B53EC102B02F024FC41EC180B9F
:1018B00002F046FBA06034E0BDF9040002F072FDC6
:1018C00041EC190B9FED1F0B53EC102B02F012FC97
:1018D00041EC180B02F034FB2060BDF9060002F069
:1018E00061FD41EC190B9FED170B53EC102B02F02F
:1018F00001FC41EC180B02F023FB6060BDF908000D
:1019000002F050FD41EC190B9FED0E0B53EC102B28
:1019100002F0F0FB41EC180B02F012FBA06000E0BB
:1019200000BF00BF03B0BDEC048B30BD0000000061
:101930000000D040000000000000C0400000000097
:101940000000B040000000000000A0407CB505464B
:101950000C46012301AA4421284600F0B3F90123D3
:101960006A464321284600F0ADF99DF800109DF825
:101970000400FFF7ABFE2080012301AA4621284680
:1019800000F0A0F901236A464521284600F09AF9A3
:101990009DF800109DF80400FFF798FE6080012379
:1019A00001AA4821284600F08DF901236A46472103
:1019B000284600F087F99DF800109DF80400FFF715
:1019C00085FEA0807CBD000030B52DED048B83B07A
:1019D00005460C4600200190029001A92846FFF719
:1019E000B5FFE87A30B1012838D002286AD0032840
:1019F0007ED19DE0BDF9040002F0D4FC41EC190B4E
:101A00009FED680B53EC102B02F074FB41EC180BAC
:101A100002F096FA2060BDF9060002F0C3FC41EC2A
:101A2000190B9FED600B53EC102B02F063FB41ECA4
:101A3000180B02F085FA6060BDF9080002F0B2FCF4
:101A400041EC190B9FED570B53EC102B02F052FB9E
:101A500041EC180B02F074FAA0609EE0BDF904009E
:101A600002F0A0FC41EC190B9FED500B53EC102B36
:101A700002F040FB41EC180B02F062FA2060BDF965
:101A8000060002F08FFC41EC190B9FED480B53EC64
:101A9000102B02F02FFB41EC180B02F051FA6060A2
:101AA000BDF9080002F07EFC41EC190B9FED3F0BE5
:101AB00053EC102B02F01EFB41EC180B02F040FA25
:101AC000A0606AE0BDF9040002F06CFC41EC190B67
:101AD0009FED380B53EC102B02F00CFB41EC180B74
:101AE00002F02EFA2060BDF9060002F05BFC00E077
:101AF00052E041EC190B9FED2F0B53EC102B02F031
:101B0000F9FA41EC180B02F01BFA6060BDF908000D
:101B100002F048FC41EC190B9FED260B53EC102B07
:101B200002F0E8FA41EC180B02F00AFAA06034E087
:101B3000BDF9040002F036FC41EC190B9FED1F0BC0
:101B400053EC102B02F0D6FA41EC180B02F0F8F926
:101B50002060BDF9060002F025FC41EC190B9FED59
:101B6000170B53EC102B02F0C5FA41EC180B02F0E6
:101B7000E7F96060BDF9080002F014FC41EC190BB4
:101B80009FED0E0B53EC102B02F0B4FA41EC180B46
:101B900002F0D6F9A06000E000BF00BF03B0BDECCA
:101BA000048B30BD000000000060604000000000B9
:101BB00000605040666666666666404066666666B9
:101BC0006666304038B504460020009001236A461E
:101BD0007521204600F076F89DF80000682801D0B5
:101BE000002020739DF8000038BD7CB505460C46EA
:101BF000012301AA4221284600F064F801236A4625
:101C00004121284600F05EF89DF800109DF8040080
:101C1000FFF75CFD20807CBD10B52DED068B82B0FA
:101C200004460020019001A92046FFF7DEFFBDF920
:101C3000040002F0B7FB41EC1A0B9FED0C0B53ECC8
:101C4000102B02F057FA41EC190B9FED0A0B53ECE5
:101C5000102B02F0A7F941EC180B02F071F900EE1D
:101C6000100A02B0BDEC068B10BD000000000000A1
:101C700000407540A4703D0AD743424010B5044669
:101C8000072020730E482168086001226B2120463E
:101C900000F0B4F800226C21204600F0AFF80321D8
:101CA000204600F086F80021204600F05DF8032170
:101CB000204600F03CF80321204600F01BF810BD40
:101CC000005400402DE9FE4304460D4616461F46CB
:101CD0006FF07040CDE9006702902B46D0220121C1
:101CE000206801F007F980460A2000F099FB404681
:101CF000BDE8FE8370B506460D4635B1012D06D010
:101D0000022D06D0032D08D105E0002406E00824AA
:101D100004E0102402E0182400E070BD00BF224659
:101D20001C21304600F06AF8B57200BFF5E770B5C7
:101D300006460D4635B1012D06D0022D06D0032DE5
:101D400008D105E0002406E0082404E0102402E0A5
:101D5000182400E070BD00BF22461B21304600F071
:101D60004DF8F57200BFF5E770B506460D46082D33
:101D700015D2DFE805F00406080A0C0E101206243E
:101D80000EE005240CE004240AE0032408E0022409
:101D900006E0012404E0002402E0072400E070BD16
:101DA00000BF22461A21304600F028F8357200BFE5
:101DB000F5E770B506460D46082D15D2DFE805F0AB
:101DC0000406080A0C0E101200240EE001240CE098
:101DD00003240AE0072408E00F2406E01F2404E09F
:101DE0003F2402E07F2400E070BD00BF224619219D
:101DF000304600F003F8757200BFF5E737B584B0E0
:101E000004460D466FF07040012106AACDE900217D
:101E100002902B46D022206801F074F90A2000F0CD
:101E2000FFFA304607B030BD00BFFEE7704770478D
:101E3000704770471848006840F470001649086001
:101E40001648006820F00100401C1449086000BFDB
:101E500012480068C0F340000028F9D00F484068DD
:101E600020F003000D49486000BF0C484068C0F3F3
:101E700081000028F9D1094800680949084007494C
:101E800008600020486008634FF41F008860C803A2
:101E9000014980390860704788ED00E00010024079
:101EA000FFFFF2FE10B52021124801F09AFD70B13B
:101EB0001048001D0068C1B20F4890F8002890F843
:101EC0000008401C0C4B83F8000818468154102170
:101ED000084801F086FD58B106480068C4B20548BC
:101EE000001D0068C4B200240120034981F80208E3
:101EF00010BD0000004C00409000002000BFFEE735
:101F000003B401984100009850EAC12018BF042092
:101F10004A0D18BF40F0010040F2FF72B2EB515F72
:101F200008BF40F00200012808BF052002B070473A
:101F300030380A2801D2012070470020704700BFC6
:101F4000704700BF704700001CB501210B4800F02E
:101F500099F9684600F064FD01208DF80700002023
:101F60008DF804008DF806000120009028208DF8DF
:101F700005006946024800F0B1FD1CBD02001800D2
:101F8000000801401CB504460F4951F82400012106
:101F900000F078F9684600F043FD01208DF8070055
:101FA00000208DF8040010208DF80600074830F856
:101FB0001400009004208DF80500054951F8240014
:101FC000694600F08BFD1CBD640000205C00002011
:101FD00050000020022800DD7047064931F810103B
:101FE00031B1044931F81010034A52F82020116130
:101FF00000BFF1E75C00002050000020022800DD57
:102000007047094931F8101059B1084951F82010AA
:10201000C968054A32F810205140044A52F820207D
:10202000D16000BFECE700005C0000205000002001
:102030000349496860F30711014A51607047000085
:10204000001002400349496860F30A21014A5160C7
:1020500070470000001002400349496860F3CD2139
:10206000014A51607047000000100240012807D16A
:102070000749496D21F030013031054A516505E0CD
:102080000349496D21F03001014A51657047000054
:1020900000100240052827D2DFE800F0030A1118DB
:1020A0001F00134A126861F30002114B1A601CE012
:1020B0000F4A126861F310420D4B1A6015E00C4A8A
:1020C000126861F318620A4B1A600EE0084A126A3D
:1020D00061F30002064B1A6207E0054A526A61F397
:1020E0000002034B5A6200E000BF00BF70470000CF
:1020F000001002402DE9F041014600270022002592
:1021000090460023002400F067F9064626B1012E10
:1021100012D0022E43D112E03948406DC0F3402066
:1021200038B13748006BC0F3406010B135480860E3
:1021300001E03548086035E03448086032E0304856
:102140004068C0F300482E484068C0F383422C48E2
:102150004068C0F341750DB90F2A03D12801401C16
:10216000024400E0921CB8F1000F03D1284850430C
:10217000086013E022484068C0F3404058B120484E
:10218000406DC0F30137B81CDFF880C0BCFBF0F035
:102190005043086002E01D485043086002E01A48BE
:1021A000086000BF00BF16484068C0F30313194819
:1021B000C45C0868E040486011484068C0F30223EE
:1021C0001548C45C4868E040C8600D484068C0F3EA
:1021D000C2231248C45C4868E040886008484068F0
:1021E000C0F3007306484068C0F3813040EA8303BF
:1021F0000B48C45C8868B0FBF4F00861BDE8F0816E
:1022000000100240006CDC0200127A0040787D0170
:1022100000093D004A4700085A4700086247000885
:102220006A47000810B501460020094B03EB114234
:10223000126801F01F040123A3401A4001F01F049B
:102240000123A3409A4200D000E0012010BD00000D
:102250000010024030B50024002500E0641C11206D
:10226000FFF7E0FF012802D0B4F5405FF6D311205C
:10227000FFF7D8FF012801D0002500E001252846FE
:1022800030BD000010B501290DD10E4B03EB1042FB
:10229000126800F01F040123A3401A43094C04EB09
:1022A00010431A600CE0074B03EB1042126800F079
:1022B0001F040123A3409A43024C04EB10431A600D
:1022C00010BD00000010024010B568B91C4B5B68DF
:1022D00023F480331A4C636023461B6B23F0007396
:1022E00003F10073236317E0154B5B6823F480331D
:1022F00003F58033124C6360012805D123465B68E7
:1023000023F40033636007E00D4B5B6823F4003374
:1023100003F500330A4C6360094B5B6861F3954336
:10232000074C63600C09064B5B6864F35E73044CF6
:10233000636023465B6862F3DF73636010BD000077
:10234000001002401348006820F00100401C1149B1
:10235000086000BF0F480068C0F340000028F9D0B3
:102360000C48406820F003000A49486000BF094853
:102370004068C0F381000028F9D10648006806498A
:102380000840044908600020486008634FF41F00BB
:102390008860704700100240FFFFF2FE0D49496857
:1023A00060F301010B4A516000BF00BF00BF00BFD6
:1023B00000BF00BF00BF00BF00BF00BF00BF00BF25
:1023C00000BF00BF00BF00BF00BF00BF00BF00BF15
:1023D000704700000010024002484068C0F38100CE
:1023E000704700000010024010B5042001F02EFAE2
:1023F000074800680749B0FBF1F007490860084644
:1024000000684FF47A7148430449086010BD000029
:102410007400002040420F00480000204C000020C3
:10242000002131E032280ADD194A126832235A436A
:102430004FF0E0235A61A0F1320290B206E0144A54
:10244000126842434FF0E0235A61002000224FF00F
:10245000E0239A611A46126942F001021A6100BF34
:102460004FF0E022116901F001021AB101F480324B
:10247000002AF5D04FF0E022126922F001024FF05D
:10248000E0231A6100229A610028CBD17047000036
:102490004C00002030B50446002509E04FF4FA70E6
:1024A000FFF7BEFF4FF4FA70FFF7BAFF681C85B262
:1024B000A542F3DB30BD000001460020114A12683E
:1024C0004A434FF0E0235A6100229A611A4612698A
:1024D00042F001021A6100BF4FF0E022106900F0E3
:1024E00001021AB100F48032002AF5D04FF0E02248
:1024F000126922F001024FF0E0231A6100229A6172
:10250000704700004800002010B5002404E0601C63
:10251000C4B20120FFF7D0FF4FF48071114800F0E2
:1025200031FB012801D1642CF1DB002404E0601CA4
:10253000C4B20120FFF7C0FF4FF48071094800F0DA
:1025400021FB08B9642CF2DB2820FFF7B5FF4FF41C
:102550008071044800F016FB08B1012010BD002076
:10256000FCE700000014014010B500240B4800F007
:10257000B5F8044674B1094802780088011208A031
:10258000FDF7DEFE05488278408801120CA0FDF7B9
:10259000D7FE02E010A0FDF7D3FE10BD38000020EA
:1025A00054656D7065726174757265203D20256497
:1025B0002E2564206465677265650D0A00000000C1
:1025C00048756D6964697479203D2025642E256401
:1025D00025250D0A0000000063616E6E6F74206691
:1025E000696E642064687431310A000070B500259A
:1025F000002400F0A7F800F039F804E0601CC4B231
:102600000120FFF759FF4FF480710F4800F0BAFA2C
:10261000012801D1642CF1DB642C01DB012500E0F1
:10262000002404E0601CC4B20120FFF745FF4FF412
:102630008071054800F0A6FA08B9642CF2DB642C1E
:1026400000DB0125284670BD0014014070B500254F
:10265000002400BF06E06006040EFFF755FF0443A8
:10266000681CC5B2082DF6DB204670BD1CB5684657
:1026700000F0D6F94FF48071084800F0CDF9002041
:102680008DF806004FF48070009018208DF805003A
:102690006946024800F022FA1CBD00000014014007
:1026A0001CB5684600F0BCF94FF480710A4800F090
:1026B000B3F902208DF8070000208DF804001020E7
:1026C0008DF806000001009018208DF8050069467D
:1026D000014800F003FA1CBD001401407CB504461B
:1026E00000260025002000900190FFF77FFF00BF2B
:1026F00005E0FFF7ABFF0DF80500681CC5B2052D1E
:10270000F7DB9DF800009DF8011008449DF80210C9
:1027100008449DF8031008449DF8041088420ED127
:102720009DF801009DF8001040EA012060809DF8AE
:1027300003009DF8021040EA012020800126304667
:102740007CBD000010B5FFF7ABFF4FF48071074868
:1027500000F062F91420FFF763FE4FF48071034824
:1027600000F05CF91E20FFF7A7FE10BD0014014029
:10277000026861F30002026070470021016041605D
:1027800001814181017341738173C173017441748B
:102790007047D0F8A430C3F300633BB9D0F8A4303D
:1027A00023F0807303F18073C0F8A430012906D1AF
:1027B000D0F8A03062F30703C0F8A03034E002295B
:1027C00006D1D0F8A03062F30F23C0F8A0302BE080
:1027D000032906D1D0F8A03062F31743C0F8A03027
:1027E00022E0042906D1D0F8A03062F31F63C0F8BC
:1027F000A03019E0052906D1D0F8A43062F3070310
:10280000C0F8A43010E0062906D1D0F8A43062F355
:102810000F23C0F8A43007E0072905D1D0F8A43071
:1028200062F31743C0F8A430704702684BF6EF73A9
:102830001A40026002680B891A4302604B7C0268EE
:1028400063F30D320260CB7B026863F38B2202607C
:102850008B7B026863F3092202604B7B026863F39F
:10286000C71202600B7B026863F3861202600B7C66
:10287000026863F3451202604A8942600A68826016
:102880004A68C260704700000021026822F001021D
:1028900002600022026042608260C260014640F233
:1028A000FF420A40B2F5816F0DD2CAB2083A142332
:1028B000B2FBF3F293000F229A400D4B5B681A4370
:1028C0000B4B5A6012E040F2FF420A40B2F5916FA2
:1028D0000CD2CAB2083A1423B2FBF3F293000F22CF
:1028E0009A40044B1B681A43024B1A607047000061
:1028F00000000240040402400021417241600121B5
:102900000172017070470000064909680140814268
:1029100004D10449091D0860086002E00149091D4D
:102920000860704710040140014600204868234AAF
:1029300012688243214B1A601A1D126882431B1DC4
:102940001A604A7A0AB30A782AB91A1F126802432F
:102950001B1F1A6006E0194A121D12680243174B2A
:102960001B1D1A60154A083212688243134B083344
:102970001A601A1D126882431B1D1A600A7A2AB94E
:102980001A1F126802431B1F1A6016E00A7A012AF6
:1029900007D10A4A0C3212680243084B0C331A6002
:1029A0000BE0064A083212680243044B08331A60EF
:1029B0001A1D126802431B1D1A6070470004014073
:1029C000014600200022064B1B6803EA0102044B6B
:1029D000143B1B681A400AB1012000E00020704738
:1029E0001404014070B504460D4600BF802109481B
:1029F00000F05DFF0028F9D0A1B2064800F04EFFBC
:102A000000BF4021034800F052FF0028F9D02046C3
:102A100070BD0000004C004041617047016170478B
:102A20004FF6FF7101600021817101710421417134
:102A30000121C1717047000010B500228B071C0FE7
:102A40000F2303FA04F28B1033B1012B13D0022BA6
:102A500020D0032B3CD12CE01F4B9B6893431E4C92
:102A6000A36023469B688C07240F00FA04F42343D9
:102A7000194CA3602DE0184BDB689343164CE360C0
:102A80002346DB688C07240F00FA04F42343124C1E
:102A9000E3601EE0104B1B6993430F4C23612346F8
:102AA0001B698C07240F00FA04F423430A4C2361AA
:102AB0000FE0094B5B699343074C636123465B69F5
:102AC0008C07240F00FA04F42343034C636100E0F5
:102AD00000BF00BF10BD000000000140F0B50A4675
:102AE0001588ABB29579032D01D100241AE09579B0
:102AF00065B9557905F00F045579182D01D1036199
:102B000010E05579282D0DD143610BE0957905F042
:102B10000805167906F004063543D67906F0030653
:102B200045EA0604DDB2A5B1002110E001258D4083
:102B30001D405DB105688F000F26BE40B54305609E
:102B400005688E0004FA06F635430560491C08291D
:102B5000ECD3FF2B15DD1B12002110E001258D4069
:102B60001D405DB145688F000F26BE40B5434560EE
:102B700045688E0004FA06F635434560491C08296D
:102B8000ECD3F0BD0246002093680B408B4200D08E
:102B900000E0012070471AB901F0FE03036102E072
:102BA00041F0010303617047026861F38A22026009
:102BB000704709B9012300E00023026863F3C712DC
:102BC0000260704701460869C0B2704701617047F2
:102BD000426861F3CB2242607047026861F30002F1
:102BE0000260704701F45F42D24392B2426142698F
:102BF00002F0020202B18269426902F0100222B1BF
:102C0000026822F00102521C026070470CB50246B5
:102C1000002001900090080F019021F07F41019861
:102C200010B95069009002E0090C9069009000987A
:102C3000084008B101200CBD0020FCE7026861F3E8
:102C400086120260704700002DE9F04385B004460B
:102C5000894615460027B8460026206820F0010066
:102C600020606846FFF746FA3648844202D036486C
:102C7000844201D1039F03E03448844200D1029F83
:102C80003348B7FBF0F01FFA80F8606868F307007C
:102C90006060304885421FD86800B7FBF0F086B20C
:102CA000042E00DA0426E06966F30B00E061E069B7
:102CB00020F40040E06108F101003F2805DD206AB2
:102CC00020F03F003F30206239E008F10100216A26
:102CD00060F30501216232E0B9F1000F09D105EB83
:102CE0004500B7FBF0F086B2E06920F48040E06177
:102CF0000CE005EBC50000EB0510B7FBF0F086B269
:102D0000E06920F4804000F58040E06106B90126CA
:102D1000E06966F30B00E061E06920F4004000F533
:102D20000040E0614FF4967008FB00F04FF47A71B8
:102D300090FBF1F0401C216A60F30501216205B0AF
:102D4000BDE8F0830054004000580040005C0140A2
:102D500040420F00A086010070B504460D4616469D
:102D600001212068FFF720FF206800F03CFA33467D
:102D700000220121204600F045FA10B10D202076F6
:102D800070BD20688068C0F3C03028B9E9B2012264
:102D90002068FFF700FF38E005F44072F02343EAB3
:102DA000E2112068FFF712FF334601220821204676
:102DB00000F028FA10B10E202076E1E7E9B2206891
:102DC000FFF704FF334601220221204600F01AFAE1
:102DD00010B10F202076D3E702212068FFF702FF11
:102DE000206800F000FA334600220121204600F05E
:102DF00009FA10B10D202076C2E705F44072F123E4
:102E000043EAE2112068FFF7E1FE33460122022186
:102E1000204600F0F7F910B10F202076B0E700202F
:102E2000AEE7026861F3CB220260704770B50446DA
:102E30000D461646206800F0D6F9334600220121DF
:102E4000204600F0DFF910B10D20207670BD20681B
:102E50008068C0F3C03028B9E9B200222068FFF7CB
:102E60009AFE15E005F44072F02343EAE21120686F
:102E7000FFF7ACFE334601220821204600F0C2F9DC
:102E800010B10E202076E1E7E9B22068FFF79EFE40
:102E9000334601220221204600F0B4F910B10F2080
:102EA0002076D3E70020D1E72DE9F04104460F4614
:102EB00015469846012F04D1E9B22068FFF786FE37
:102EC00015E0290A2068FFF781FE43460122802190
:102ED000204600F097F906462EB1206800F08AF9E6
:102EE0003046BDE8F081E9B22068FFF76FFE0020B0
:102EF000F7E700002DE9F04704468A461746984652
:102F0000DDE90969089D65602681002020764B4631
:102F100000227B49204600F075F910B10120BDE880
:102F2000F08700212068FFF77CFF01212068FFF770
:102F30003BFE4A4639462046FFF778FF20B120681D
:102F400000F058F90220EAE702212068FFF74AFE64
:102F50004B4601228021204600F054F920B1206820
:102F600000F048F90320DAE74B4642465146204636
:102F7000FFF79AFF08B10420D1E74B4601228021D8
:102F8000204600F03FF920B1206800F033F9052019
:102F9000C5E74A4639462046FFF7DEFE20B12068E5
:102FA00000F028F90620BAE7012E0BD10021206895
:102FB000FFF7FAFD02212068FFF714FE206800F0F9
:102FC00019F916E0022E0CD101212068FFF729FF24
:102FD00002212068FFF706FE00212068FFF7E4FDCC
:102FE00007E001212068FFF7DFFD02212068FFF7DD
:102FF000F9FD7FE0032E6ADC012E13D14B4600223F
:103000004021204600F0FEF820B1206800F0F2F8E0
:10301000072084E72068FFF7D5FD05F8010B701E37
:1030200086B267E0022E1DD14B46002204212046C5
:1030300000F0E8F820B1206800F0DCF808206EE726
:10304000206800F0D7F82068FFF7BCFD05F8010BF9
:10305000701E86B22068FFF7B5FD05F8010B701EE3
:1030600086B247E04B4600220421204600F0CAF811
:1030700020B1206800F0BEF8092050E70021206848
:10308000FFF792FD2068FFF79DFD05F8010B701E0C
:1030900086B24B4600220421204600F0B3F820B14E
:1030A000206800F0A7F80A2039E7206800F0A2F8AD
:1030B0002068FFF787FD05F8010B701E86B22068B7
:1030C000FFF780FD05F8010B701E86B212E04B463B
:1030D00000224021204600F095F820B1206800F041
:1030E00089F80B201BE72068FFF76CFD05F8010B42
:1030F000701E86B2002E3FF77DAF00200FE7000064
:10310000000002102DE9F04704468A46174698460B
:10311000DDE90969089D65602681002020764B461F
:1031200000222B49204600F06DF810B10120BDE8C7
:10313000F08700212068FFF774FE4A463946204692
:10314000FFF774FE20B1206800F054F80220EEE78B
:1031500002212068FFF746FD4B46012280212046D0
:1031600000F050F820B1206800F044F80320DEE7BA
:103170004B46424651462046FFF796FE08B10420D2
:10318000D5E712E04B4601228021204600F03AF8B4
:1031900020B1206800F02EF80520C8E715F8011BC3
:1031A0002068FFF713FD701E86B2002EEADC4B4646
:1031B00001220421204600F025F820B1206800F00B
:1031C00019F80620B3E7206800F014F80020AEE7F5
:1031D00000000210836861F3CF338360836862F379
:1031E000090383607047016821F4807101F58071E3
:1031F00001607047016821F4007101F50071016000
:10320000704700002DE9F04104460F4615461E4662
:10321000224887420FD107E0301EA6F1010603D1F4
:1032200012202076BDE8F08139462068FFF7EEFCD9
:103230000028F1D130E029E005F0010080B14FF421
:1032400080612068FFF7E2FC50B12068FFF7D2FFF1
:103250004FF480612068FFF7C5FC11202076E1E77C
:1032600005F0020058B110212068FFF7CFFC30B103
:1032700010212068FFF7B6FC10202076D2E7301E20
:10328000A6F1010602D112202076CBE7394620684C
:10329000FFF7BCFC0028CFD00020C3E700000210DD
:1032A00000F076FD00F048FD002000F0CFFA224843
:1032B0000068C0084FF47A71B0FBF1F4204600F0CA
:1032C000D9FA00F00BFD00F015FC00231A461B494B
:1032D0001B4800F063FC01211948FFF749FA00F090
:1032E00033FC00231A4615491548143000F056FCEB
:1032F000012113481430FFF73BFA00F0B5FD00F050
:10330000A1FC00F04FFC00F07FFCFFF76DF8FEF72A
:10331000C7F900F08DF800F0EBF80120FFF7BAF8DC
:1033200008A0FDF70DF806E000F010F8FFF71CF913
:103330000120FFF7AFF8F7E77400002010540040B9
:10334000080002407374617274310A0010B52DEDEB
:10335000028B00240120FEF73DFE2349234800682C
:10336000FEF7F6F9224921480068FEF72DFB21A05F
:10337000FCF7E6FF00BF11E01B4800EB840090ED76
:10338000000A10EE101A084601F062F941EC180B21
:1033900053EC182B1DA0FCF7D3FF641C032CEBDBB4
:1033A0001CA0FCF7CDFF002411E0114800EB8400C5
:1033B00090ED000A10EE101A084601F049F941ECB0
:1033C000180B53EC182B11A0FCF7BAFF641C032C4C
:1033D000EBDB16A0FCF7B4FF4FF47A70FFF720F890
:1033E000BDEC028B10BD00007800002034000020EE
:1033F000840000206D7075363035305F6163636521
:103400006C5F76616C75653A00000000252E3266AF
:10341000200000000D0A6D7075363035305F677919
:10342000726F5F76616C75653A0000000D0A0000EE
:1034300010B51D48006890B91020FCF72AFF1A4902
:1034400008600846006850B918A0FCF779FF05E04D
:103450000020FEF7D3FDC820FEF7E2FFF8E7124890
:1034600000680068C0B93820FCF713FF0E490968EE
:1034700008600D480068006870B913A0FCF760FF91
:1034800009480068FCF734FF05E00120FEF7B6FDAF
:10349000C820FEF7C5FFF8E76420FEF7C1FF024829
:1034A0000068FEF7EBFB10BD340000204D656D6F2A
:1034B000727920616C6C6F636174696F6E206661F4
:1034C000696C6564210A00004D656D6F7279206139
:1034D0006C6C6F636174696F6E20666F72206869CF
:1034E000326378206661696C6564210A000000001F
:1034F00010B52DED048B00249FED2A0AB0EE408A12
:1035000029480068007B012809D02748006830B9A5
:1035100026A0FCF715FF24480068FEF7AFFB224801
:103520000068FEF74FFB30490870084600786828AD
:1035300004D02EA0FCF704FF00BFFEE7002410E03B
:1035400019480068FEF768FB30EE080AB0EE408AC2
:1035500021462EA0FCF7F4FE4FF47A70FEF760FFD0
:10356000641C0A2CECDB204801782BA0FCF7E8FE59
:1035700000EE104AB8EEC00AC8EE000A2C48C0EDB2
:10358000000A006801F064F841EC190B53EC192BA8
:1035900028A0FCF7D5FE4FF47A70FEF741FFBDEC92
:1035A000048B10BD0000000034000020746865200A
:1035B0006D70753630353020686173206E6F742001
:1035C0006265656E20696E697469616C697A6564AB
:1035D0002C6265696E6720696E697469616C697ACD
:1035E00065642E0A000000000000002063616E6E1A
:1035F00027742072656164204D5055363035302C6B
:10360000636865636B2069742E0A000077616974D2
:10361000202564200A000000676574206D707536EF
:103620003035305F6964203A20307825580A000030
:10363000040000206D7075363035305F74656D7034
:10364000203D20252E326620430A00002DE9F04758
:103650000B4614464FF0000C00BF2C4A1268C2F310
:1036600002211D4626460A46C2F10709B9F1040F98
:1036700002D94FF0040901E0C2F10709C84602F17E
:103680000409B9F1070F02D24FF0000901E0A2F1DD
:1036900003094F464FF0010909FA08F9A9F1010998
:1036A00009EA050909FA07F94FF0010A0AFA07FAC7
:1036B000AAF1010A0AEA060A49EA0A09CC460146C1
:1036C0006246002904DB15072E0E114D6E5407E0EB
:1036D00015072F0E0D4D0C3501F00F06361FAF5597
:1036E00000BF014600290DDB00BF00BF01F01F0530
:1036F0000122AA404D09AD0005F1E025C5F80021E1
:1037000000BF00BF00BFBDE8F08700000CED00E087
:1037100000E400E000BF00F00702064B19684FF616
:10372000FF031940044B0B4343EA0221014B19608C
:1037300000BF70470CED00E00000FA05034909687E
:1037400060F30821014A11607047000000700040DA
:103750002DE9F0470026002400250027A046A146B9
:10376000FEF73AFE8246BAF1000F06D0BAF1010F19
:1037700015D0BAF1020F46D115E02D48406DC0F3C7
:10378000402040B12A48006BC0F3406018B129487E
:103790002949086002E029482749086037E028489D
:1037A0002549086033E022484068C0F300472048BC
:1037B0004068C0F383441E484068C0F341750DB9AA
:1037C0000F2C03D12801401C044400E0A41C27B99D
:1037D0001C4860431849086014E015484068C0F36D
:1037E000404058B11248406DC0F30136B01C144936
:1037F000B1FBF0F060431049086003E010486043FB
:103800000D49086003E00D480B49086000BF00BF88
:1038100007484068C0F303180B4810F808900648A2
:10382000006820FA09F004490860BDE8F08700004C
:1038300000100240006CDC027400002000127A00CC
:1038400040787D0100093D0072470008042808D136
:103850004FF0E021096941F004014FF0E0221161CD
:1038600007E04FF0E021096921F004014FF0E02268
:10387000116170470146481EB0F1807F01D30120DD
:103880007047481E4FF0E0225061002090611046C2
:10389000006940F0030010610020F1E7C1F3080265
:1038A00042607047C26861F34D32C26070470246A1
:1038B0001068084008B1012070470020FCE741B9BA
:1038C000426922F480724261426922F400724261CC
:1038D00027E001290AD1426922F4807202F5807240
:1038E0004261426922F4007242611AE002290AD15F
:1038F000426922F480724261426922F4007202F548
:10390000007242610DE003290BD1426922F48072FA
:1039100002F580724261426922F4007202F500727F
:10392000426170472DE9F04385B004460F4690464A
:1039300099466846FEF7DEFB1848844208D01848CE
:10394000844205D01748844202D01748844201D1EE
:10395000029E00E0039E06EB86004000B0FBF7F5F8
:103960000A20B5FBF0F100FB1150052803D20A2014
:10397000B5FBF0F503E00A20B5FBF0F0451CA068AC
:1039800065F30F00A060E06868F30C30E060206928
:1039900069F30D30206105B0BDE8F08300380140C7
:1039A00000600140006401400068014030B5012A18
:1039B0000BD100EB11431B6801F01F050124AC4043
:1039C000234300EB114423600AE000EB11431B6822
:1039D00001F01F050124AC40A34300EB1144236018
:1039E00030BD02460023202927D00CDC042939D021
:1039F00004DC01293BD002293DD134E0082920D044
:103A0000102938D12AE0402913D080290DD0B1F5F2
:103A1000807F06D0B1F5007F2DD15069C0F380239F
:103A20002BE01069C0F3801327E0D068C0F3C01307
:103A300023E0D068C0F380131FE0D068C0F34013C8
:103A40001BE0D068C0F3401018B9506900F00100C5
:103A500008B1012000E0002003460EE0D068C0F36A
:103A600000130AE000BF506900F0010305E0D068D0
:103A7000C0F3002301E0002300BF00BF012B01D0F1
:103A8000002070471068084008B10120F9E70020C5
:103A9000F7E741B9C26822F40072C260C26822F43A
:103AA0008062C2601AE001290AD1C26822F4007261
:103AB000C260C26822F4806202F58062C2600DE0DA
:103AC00002290BD1C26822F4007202F50072C260B2
:103AD000C26822F4806202F58062C2607047C268E8
:103AE00061F38202C2607047C26861F3C302C260C0
:103AF0007047000000B585B01248FEF7C5FE684665
:103B0000FEF73BFE0020ADF808008DF80F00012005
:103B10008DF80D0000208DF80E008DF80C000320AC
:103B20008DF8110000208DF8100069460548FEF759
:103B30007CFE2922012103480838FEF72AFE05B041
:103B400000BD00000800024000B585B01248FEF735
:103B50009BFE6846FEF711FE1020ADF8080000201D
:103B60008DF80F0001208DF80D0000208DF80E005B
:103B70008DF80C0003208DF8110000208DF8100046
:103B800069460548FEF751FE2A22022102481C38E8
:103B9000FEF7FFFD05B000BD1C00024043608160E0
:103BA000C260704700B585B003A8FEF739FF00205A
:103BB0008DF812000120039004208DF8110003A954
:103BC0001048FEF78BFF00210846FEF735FF6846D8
:103BD000FEF792FE01208DF8090000208DF800000C
:103BE0000120019000208DF808006846FEF79CFE39
:103BF0000320FFF78FFD002201210620FFF726FD9D
:103C000005B000BD000801401CB56846FEF708FF7E
:103C10004FF480710A48FEF7FFFE02208DF807007E
:103C200000208DF8040008208DF806004001009067
:103C300004208DF8050069460148FEF74FFF1CBDC2
:103C4000001401401CB56846FEF7EAFE04208DF81A
:103C500004008DF8050008208DF8060001208DF87D
:103C600007004020009069461948FEF737FF0420FE
:103C70008DF804008DF8050008208DF8060001205D
:103C80008DF807008020009069461148FEF726FF56
:103C9000104A00211048FEF7D7FF002211460E48B7
:103CA000FFF798FA01210C48FEF77EFF01210A4830
:103CB000FEF77FFF01210848FEF7C0FF01210648FB
:103CC000FEF786FF01210448FEF787FF1CBD0000B8
:103CD000000C0140A08601000054004010B50320F4
:103CE000FFF718FD00221146501EFFF7AFFC00221F
:103CF00011460520FFF7AAFC002211460620FFF717
:103D0000A5FC002211460B20FFF7A0FC0022114663
:103D10000C20FFF79BFC002211461F20FFF796FCAA
:103D2000002211462020FFF791FC0022114634208A
:103D3000FFF78CFC10BD000010B501214FF4A0105E
:103D4000FEF7A0FA01214FF4C010FEF79BFA012103
:103D50000D48FEF797FA01210B48401CFEF792FA36
:103D600001210948801CFEF78DFA01210648C01C7C
:103D7000FEF788FA01210548FEF784FA012103487D
:103D8000801CFEF77FFA10BD0200180013001C0013
:103D900010B5FEF7D7FA01214FF01C10FEF772FAAA
:103DA0000120FFF7CBFC2E48FEF73CFA48B9012171
:103DB0000320FEF76FF900BF2948FEF733FA002809
:103DC000FAD00020FFF7BAFC00214FF01C10FEF7DC
:103DD00059FA01210420FEF75DF900BF2148FEF7E2
:103DE00021FA0128FAD101210846FEF753F900BF54
:103DF000FEF730FA0028FBD001210020FEF74AF937
:103E000000BF0120FEF70EFA0128FAD101223B2162
:103E10000020FEF759FA01210220FEF73BF900BF0E
:103E20001920FEF7FFF90128FAD10820FEF700F962
:103E30000420FEF711F90420FEF704F90120FEF733
:103E400015F90220FEF7AAFA00BFFEF7C5FA02280C
:103E5000FBD10020FEF70AF9FFF77AFC10BD000045
:103E600001002000010024001CB56846FEF7D8FDC3
:103E700002208DF8070000208DF8040008208DF83E
:103E80000600C001009004208DF8050069461E4818
:103E9000FEF724FE02208DF8070000208DF80400B4
:103EA0008DF806004FF40060009018208DF8050092
:103EB00069461548FEF712FE00231A464FF4E13119
:103EC0001248FFF72FFD01211048FFF70DFE0121D9
:103ED0000E48FFF704FE00210C48FFF7DAFD002131
:103EE0000A48FFF7ECFC01210848FFF7DBFC012240
:103EF00007490648FFF75AFD01220549491C0348B6
:103F0000FFF754FD1CBD000000100140004C0040B4
:103F100004000C0010B500290AD00878002807D04A
:103F200005487844FCF770FF002801D0002010BD40
:103F30000248784410BD00003E0900003609000028
:103F400021F00042A2F16052B2F5801F01F000435F
:103F500028BFD2F17F6C0BD95FEA001C43EAC20292
:103F600042EB507018BF704728BF20F00100704727
:103F7000B2F5801FBCBF184670474FEA410C1CF5D4
:103F8000001F02D2084600F0D9BB70B500F021FA3C
:103F900000000089FFF7F6BF4FF00040A0F5800059
:103FA0007047000010B591EA030F48BF83F000434B
:103FB00000F16C82841A71EB030C05D2121943EBE9
:103FC0000C03001B61EB0C01DFF824E14FEA1154F4
:103FD000A4EB135C1EEA430F18BF9EEA445F73D044
:103FE00023EA0E03DCF1200E21EA045143F480138E
:103FF00032D322FA0CFE10EB0E0023FA0CFE41EB3A
:104000000E01CCF1200E03FA0EFE10EB0E0051F162
:104010000001B1F5801FCCF1200E32D201EB04512A
:1040200012FA0EF2BDE8104058BF7047401C38BF6E
:104030005FEA420218BF7047002814BF20F0010059
:1040400041F100014FEA410313F5001F38BF7047EB
:10405000A1F1C04100F00BBA012A43EB0302ACF11D
:10406000200CDCF11F0E32BF4FF0000E23FA0CF3D0
:1040700010EB030041EB0451B4EB115FD0D0A1EB86
:10408000045101F5801149085FEA300001EB045149
:104090000ED350F1000038BF12FA0EFE08D1BDE871
:1040A0001040C9E7401C38BF5FEA4202CAD1C3E7EB
:1040B000BDE810404FEA410313F5001F38BF7047B9
:1040C000A1F1C04100F0D3B99EEA445F08D011EAE3
:1040D0005E0FBDE8104004BF01F0004100207047B2
:1040E000BDE8104070B500F074F900BF64FBBE3E3F
:1040F0000000E0FF2DE9C04130B4DFF8A0C23CEA87
:10410000111418BF3CEA131400F0EC8081EA030597
:104110001CEA111444EAD57418BF1CEA131500F008
:10412000C780A4EB05044FF0004545EAC12145EAEC
:10413000C32341EA505143EA525304F17F74994238
:1041400004F500344FEAC0204FEAC22208BF904273
:1041500000F09C804FEA13650FF24016765D4FEA3F
:10416000134506FB05F7C7F1807706FB07F74FEA13
:10417000D737A7FB03687642C8F58038A7FB06CE81
:1041800038BFA8F1010807FB08E64FF0000EA6FBB8
:10419000028CE6FB03CEDCF1000CCEF1004E38BF02
:1041A000AEF1010EA6FB0C584FF000074FF00005D2
:1041B000E6FB0E87A1FB08C6A0FB07CE16EB0E069A
:1041C00045F10005E1FB076515F1E04E7EBFA4F562
:1041D00080345FEA46066D4116F1800745F100051F
:1041E0004FEA17274FEA066647EA0567A6F1DE465B
:1041F000B6F1805F4FEA15251FD9384624F0010C2F
:1042000005EBC471BCF1FE6F01EB0C1102D8F0BCE0
:10421000BDE8008124425CBF01F5801E9EEAC47F98
:1042200002D4F0BCBDE80081244238D4F0BCA1F136
:10423000C041BDE8004100F01AB94FEAD22242EA7B
:1042400043524FEAD323A7FB02864FEAD02040EA2D
:10425000415007FB03661EEA0E0F4FEAD12105FB12
:10426000026658BFA6EB0056B6EB00564FEA520E58
:104270004EEAC37E18EB0E0E56EB530EBDD518EB6F
:1042800002085E417F1C55F10005B6E74FF480152A
:104290004FF000074FF000064FF00008ADE7F0BC0C
:1042A0004FF0000001F1C04101F00041BDE8008184
:1042B00011EA0C1F0CEA131500D00CE013EA0C1FD6
:1042C00000F025804FF00000F0BC81EA030101F00E
:1042D0000041BDE80081F0BCBDE8004181EA030176
:1042E00000F0C5B8F0BCBDE8004170B500F071F851
:1042F000097EFC3E00F007B881EA03014FF00000A0
:1043000001F00041704781EA030100F0B0B8F0BC51
:10431000BDE800414FF0000021497047FFFDFBF967
:10432000F7F5F4F2F0EEEDEBE9E8E6E4E3E1E0DEE8
:10433000DDDBDAD8D7D5D4D3D1D0CFCDCCCBCAC85A
:10434000C7C6C5C4C2C1C0BFBEBDBCBBBAB9B8B781
:10435000B6B5B4B3B2B1B0AFAEADACABAAA9A8A874
:10436000A7A6A5A4A3A3A2A1A09F9F9E9D9C9C9B42
:104370009A999998979796959594939392919190ED
:104380008F8F8E8E8D8C8C8B8B8A8989888887877E
:104390008685858484838382828181800000FF07F3
:1043A0000000F87F10F0004248BF4042B0FA80F3AE
:1043B00010FA03F10AD0C3F11D0303F580634FEA3D
:1043C000415002EB035202EBD12170474FF0000045
:1043D00070470EF1020E2EF0030E5EF8046B3642AB
:1043E00005D4012A43EB030515F5001F12D8012857
:1043F00041EB010C1CF5001F0CD80ED14FEAD17C0B
:1044000015F5001F0CEB4C0C0CF1020C08BF4CEB2B
:10441000D37C04E04FF0080C01E04FEAD37C0CEBB6
:104420004C0526FA05F606F00706B6F1040C06D28E
:104430000EEB860CBDE870404CF0010C6047DFE8E5
:104440000CF0090B02024FF000414FF00000A1F503
:10445000002170BD19461046012851EB010418BF18
:10446000D4F5001484BF002001F0004170BD08089D
:10447000A0F500114FEA31017047000010B591EA34
:10448000030F48BF83F000433FF594AD841A71EBEE
:10449000030C07D212198CF0004C43EB0C03001BE9
:1044A00061EB0C01DFF8A4E14FEA1154A4EB135CBB
:1044B0001EEA430F18BF9EEA445F00F0B08023EA73
:1044C0006E03524221EA0451C3EB6E0338BF5B1EF8
:1044D000DCF1200E25D322FA0CFE10EB0E0043FA7D
:1044E0000CFE41EB0E01CCF1200E03FA0EFE10EB98
:1044F0000E0051F10001CCF1200E29D412FA0EF277
:1045000001EB0451BDE8104058BF7047401C1CBF70
:10451000B2F1004F704700280CBF491C20F0010089
:10452000704712EB020E43EB030218BF4FF0010E6F
:104530004EEA4202ACF1200CDCF11E0E54D943FAD3
:104540000CFE10EB0E0051F1FF31CCF11E0ED5D553
:104550000EF1010E12FA0EFE404141EB010101EB9A
:10456000445C5FEA5C5C10D910EBDE7001EB045137
:1045700038BFBEF1004FBDE8104018BF704700289B
:104580000CBF491C20F00100704730D24FEAD42CF8
:1045900011F5001124F400641BD0B1FA81F20B3A3A
:1045A000A41AA41ED2F12003914030FA03F3194358
:1045B000904001EBCC71002C01EB0451BDE81040A0
:1045C000A8BF704701F1C0414FF0000001F0004169
:1045D0007047B0FA80F310FA03F100D110BDE41A6D
:1045E000173C4805C90AE4E701EB045110BD491026
:1045F00001EB0451BDE810404FEA300002E04FF0FB
:10460000000170474A0008BF0042F8D0B2F5001F11
:1046100028BF704701F000414FF0000070479EEA4C
:10462000445F07D011EA5E0FBDE8104004BF0021CF
:1046300000207047BDE8104070B5FFF7CAFE00BF0C
:1046400040DFF63E83F00041104670470000E0FF77
:1046500043004FEAD30C4FEA3C0C43401FBF4007D6
:104660000CF1605113F0FE4F70471CF0006F03D146
:1046700000200CF0004170470CF0004343EA5070FA
:1046800010B540EACC0000F00EF800BF0000009228
:104690004FEA0001FFF7EBBE4FF000414FF0000082
:1046A000A1F5002170470EF1020E2EF0030E5EF808
:1046B000044B244204D44FEA4102B2F17F4F11D897
:1046C0004FEA4003B3F17F4F0CD80ED14FEAD07CB4
:1046D000B2F17F4F0CEB4C0C0CF1020C08BF4CEB11
:1046E000D17C04E04FF0080C01E04FEAD17C0CEBE8
:1046F0004C0324FA03F404F00704B4F1040C06D2CA
:104700000EEB840CBDE810404CF0010C6047DFE874
:104710000CF0070802024FF00040A0F5800010BD29
:104720000846420018BFD2F1807288BF00F00040F6
:1047300010BD4FF04070E1EE100A7047FF2141EAD2
:10474000D050C0057047FCF77FB8000000000000A3
:10475000000001020304060708090000000001022E
:104760000304000000000102030402040608020C16
:10477000081000000000000000000102030406070A
:104780000809303132333435363738394142434401
:1047900045464030580030313233343536373839B9
:1047A000616263646566403078000000024000008A
:1047B000000000A00000000005400000000000C84C
:1047C000000000000C4000000000409C00000000C1
:1047D000194000000020BCBE000000003440000072
:1047E000BFC91B8E00000004B5400000504BCFD065
:1047F0006607E2CF010000006C4100003E8251AA32
:10480000DFEEA73401000000D9420000DCB5A0E2D1
:104810003A301F97FFFFFFFFB4450000FD25A0C8F9
:10482000E9A3C14FFFFFFFFFFF3F00000000008032
:1048300000000000FF3F00000000008000000000BA
:104840007C4800080000002078000000C00100083B
:10485000F448000878000020A0120000DC010008E5
:104860001C00000043000000F8FFFFFF0C000000E8
:104870000E0000000F0000002E00000000000000ED
:104880000000000075617274207472616E73666559
:104890007220627920696E746572727570743A2044
:1048A0007561727434202D3E20000000000000006D
:1048B00000000000000000000000000000000000F8
:1048C0000000000000000000000000000014014093
:1048D000001401400014014000200040008000004E
:1048E0000500180005001800050018000100000070
:0448F00000127A0038
:040000050800018569
:00000001FF
